{"abi":[{"type":"constructor","inputs":[],"stateMutability":"nonpayable"},{"type":"function","name":"distrubuteEther","inputs":[{"name":"recipients","type":"address[]","internalType":"address[]"},{"name":"amount","type":"uint256","internalType":"uint256"}],"outputs":[],"stateMutability":"payable"},{"type":"function","name":"distrubuteToken","inputs":[{"name":"token","type":"address","internalType":"contract IERC20"},{"name":"recipients","type":"address[]","internalType":"address[]"},{"name":"amount","type":"uint256","internalType":"uint256"}],"outputs":[],"stateMutability":"payable"},{"type":"function","name":"owner","inputs":[],"outputs":[{"name":"","type":"address","internalType":"address"}],"stateMutability":"view"},{"type":"function","name":"renounceOwnership","inputs":[],"outputs":[],"stateMutability":"nonpayable"},{"type":"function","name":"transferOwnership","inputs":[{"name":"newOwner","type":"address","internalType":"address"}],"outputs":[],"stateMutability":"nonpayable"},{"type":"event","name":"OwnershipTransferred","inputs":[{"name":"previousOwner","type":"address","indexed":true,"internalType":"address"},{"name":"newOwner","type":"address","indexed":true,"internalType":"address"}],"anonymous":false},{"type":"error","name":"AddressEmptyCode","inputs":[{"name":"target","type":"address","internalType":"address"}]},{"type":"error","name":"AddressInsufficientBalance","inputs":[{"name":"account","type":"address","internalType":"address"}]},{"type":"error","name":"FailedInnerCall","inputs":[]},{"type":"error","name":"OwnableInvalidOwner","inputs":[{"name":"owner","type":"address","internalType":"address"}]},{"type":"error","name":"OwnableUnauthorizedAccount","inputs":[{"name":"account","type":"address","internalType":"address"}]},{"type":"error","name":"SafeERC20FailedOperation","inputs":[{"name":"token","type":"address","internalType":"address"}]}],"bytecode":{"object":"0x6080604052348015600f57600080fd5b503380603557604051631e4fbdf760e01b81526000600482015260240160405180910390fd5b603c816041565b506091565b600080546001600160a01b038381166001600160a01b0319831681178455604051919092169283917f8be0079c531659141344cd1fd0a4f28419497f9722a3daafe3b4186f6b6457e09190a35050565b610879806100a06000396000f3fe60806040526004361061004a5760003560e01c8063715018a61461004f57806383ff9c05146100665780638da5cb5b14610079578063ce56f6f0146100a5578063f2fde38b146100b8575b600080fd5b34801561005b57600080fd5b506100646100d8565b005b6100646100743660046106fe565b6100ec565b34801561008557600080fd5b50600054604080516001600160a01b039092168252519081900360200190f35b6100646100b3366004610758565b610164565b3480156100c457600080fd5b506100646100d336600461079d565b610325565b6100e0610363565b6100ea6000610390565b565b6101016001600160a01b0384163330846103e0565b8151600061010f82846107ba565b905060005b845181101561015c57610154858281518110610132576101326107dc565b602002602001015183886001600160a01b031661044d9092919063ffffffff16565b600101610114565b505050505050565b348111156101b05760405162461bcd60e51b81526020600482015260146024820152734c656e677468206469646e2774206d617463682160601b60448201526064015b60405180910390fd5b815160006101be82846107ba565b905060005b828110156102875760008582815181106101df576101df6107dc565b60200260200101516001600160a01b03168360405160006040518083038185875af1925050503d8060008114610231576040519150601f19603f3d011682016040523d82523d6000602084013e610236565b606091505b505090508061027e5760405162461bcd60e51b81526020600482015260146024820152732330b4b632b2103a379039b2b7321022ba3432b960611b60448201526064016101a7565b506001016101c3565b5047801561031e57604051600090339083908381818185875af1925050503d80600081146102d1576040519150601f19603f3d011682016040523d82523d6000602084013e6102d6565b606091505b505090508061015c5760405162461bcd60e51b81526020600482015260146024820152732330b4b632b2103a379039b2b7321022ba3432b960611b60448201526064016101a7565b5050505050565b61032d610363565b6001600160a01b03811661035757604051631e4fbdf760e01b8152600060048201526024016101a7565b61036081610390565b50565b6000546001600160a01b031633146100ea5760405163118cdaa760e01b81523360048201526024016101a7565b600080546001600160a01b038381166001600160a01b0319831681178455604051919092169283917f8be0079c531659141344cd1fd0a4f28419497f9722a3daafe3b4186f6b6457e09190a35050565b6040516001600160a01b0384811660248301528381166044830152606482018390526104479186918216906323b872dd906084015b604051602081830303815290604052915060e01b6020820180516001600160e01b038381831617835250505050610483565b50505050565b6040516001600160a01b0383811660248301526044820183905261047e91859182169063a9059cbb90606401610415565b505050565b60006104986001600160a01b038416836104e6565b905080516000141580156104bd5750808060200190518101906104bb91906107f2565b155b1561047e57604051635274afe760e01b81526001600160a01b03841660048201526024016101a7565b60606104f4838360006104fb565b9392505050565b6060814710156105205760405163cd78605960e01b81523060048201526024016101a7565b600080856001600160a01b0316848660405161053c9190610814565b60006040518083038185875af1925050503d8060008114610579576040519150601f19603f3d011682016040523d82523d6000602084013e61057e565b606091505b509150915061058e868383610598565b9695505050505050565b6060826105ad576105a8826105f4565b6104f4565b81511580156105c457506001600160a01b0384163b155b156105ed57604051639996b31560e01b81526001600160a01b03851660048201526024016101a7565b50806104f4565b8051156106045780518082602001fd5b604051630a12f52160e11b815260040160405180910390fd5b6001600160a01b038116811461036057600080fd5b634e487b7160e01b600052604160045260246000fd5b80356106538161061d565b919050565b600082601f83011261066957600080fd5b813567ffffffffffffffff81111561068357610683610632565b8060051b604051601f19603f830116810181811067ffffffffffffffff821117156106b0576106b0610632565b6040529182526020818501810192908101868411156106ce57600080fd5b6020860192505b838310156106f4576106e683610648565b8152602092830192016106d5565b5095945050505050565b60008060006060848603121561071357600080fd5b833561071e8161061d565b9250602084013567ffffffffffffffff81111561073a57600080fd5b61074686828701610658565b93969395505050506040919091013590565b6000806040838503121561076b57600080fd5b823567ffffffffffffffff81111561078257600080fd5b61078e85828601610658565b95602094909401359450505050565b6000602082840312156107af57600080fd5b81356104f48161061d565b6000826107d757634e487b7160e01b600052601260045260246000fd5b500490565b634e487b7160e01b600052603260045260246000fd5b60006020828403121561080457600080fd5b815180151581146104f457600080fd5b6000825160005b81811015610835576020818601810151858301520161081b565b50600092019182525091905056fea2646970667358221220e1b4673f3fc1419d98b35d03b4e5f0f8eafbb8d02eacfef646ee92a86e34a82e64736f6c634300081a0033","linkReferences":{}},"methodIdentifiers":{"distrubuteEther(address[],uint256)":"ce56f6f0","distrubuteToken(address,address[],uint256)":"83ff9c05","owner()":"8da5cb5b","renounceOwnership()":"715018a6","transferOwnership(address)":"f2fde38b"},"id":23}